:10000000A1C50000BBC50000B9C500000C94B22911
:10001000B5C50000B3C50000B1C50000AFC5000004
:10002000ADC50000ABC500000C94CC110C94BB1006
:100030000C945C13A3C50000A1C500009FC500007F
:100040009DC500009BC5000099C5000097C5000034
:1000500095C500000C941E1391C500008FC50000CB
:100060008DC500008BC5000089C5000087C5000054
:1000700085C5000083C5000081C500007FC5000064
:100080007DC500007BC5000079C5000077C5000074
:1000900075C5000073C5000071C500006FC5000084
:1000A0006DC500006BC5000069C50000A5061907F5
:1000B000AD0677067B06B1067E06B406BF06890646
:1000C0000F078D06C3069106C706F1069506CB06F7
:1000D000FB069B06D106DB068206B8068506BB0634
:1000E000A006D606E706070709077306A906220732
:1000F00049074F073D07430755075B076107CD07D2
:100100009B07A007A507AA07AF07B407B907BE0753
:10011000C307C8076A086A089C089C0818094E0AA1
:100120004E0A4E0A3609C409D509D509960AA10A0C
:10013000CD079B07A007A507AA07AF07B407B90714
:10014000BE07C307C807AF0AB40A9722BE225E24BF
:10015000BE225E24062329235E2418242C2420207A
:1001600020206162636465666768696A6B6C6D6EA6
:100170006F707172737475767778797A313233343F
:10018000353637383930524542545F2D3D5B5D5C22
:10019000233B27602C2E2F20202000DA0281FFD95C
:1001A000F1DB20A4A62EAF00A0C0D30000A1C8D3CD
:1001B0000000AED580A81F408D142000556E6465E8
:1001C000660041646A757374005261697365004C1E
:1001D0006F7765720044656661756C74004C617977
:1001E00065723A20003A002C206B007800808182F2
:1001F000838485868788898A8B8C8D8E8F90919257
:100200009394A0A1A2A3A4A5A6A7A8A9AAABACADAC
:10021000AEAFB0B1B2B3B4C0C1C2C3C4C5C6C7C823
:10022000C9CACBCCCDCECFD0D1D2D3D40000AF0071
:10023000AE290014001A000800150017002B000456
:10024000281624072109220A00E1001D001B0006D0
:100250000019000500000000000000E20022522A00
:10026000002800130012000C0018001C003400339A
:10027000380F340E310D320B00E5003800370036F0
:100280000010001100000000000000E40021522CCA
:10029000000000350026022F022F00360200001E4B
:1002A000021F0220022102220200003802310256FF
:1002B000002D02000000000000000000002352009A
:1002C00000000035022702300230003702000057DC
:1002D000002E002502240223020000380031000015
:1002E000000000000000000000000000000000000E
:1002F000000F080000160A000000003D013900A8A8
:1003000052A452A152A252000000000000000006B8
:1003100011191100000000000000000000000000A2
:1003200000460000004D002B004A004B000000007A
:10033000004F005200510050004C0000000000002F
:100340000000004E000000000000000000235200EA
:100350000020784300420041004000000023784420
:10036000003F003E003D002778247845003C003BDC
:10037000003A0028780000000000000000000000A3
:1003800000000000002600250024000000000027D7
:1003900000230022002100E4000000000020001FD4
:1003A000001E00000000000000000000000000002F
:1003B000004C4C4C4C4C4C4C4C4C4C4C4C4C4C4CC9
:1003C0004C4C4C0000004C4C4C5252525252525227
:1003D00052525252525252525252520000005252F3
:1003E0005205010980A101850319012AB7001501F1
:1003F00026B700950175108100C0050C0901A10107
:10040000850419012AA002150126A0029501751084
:100410008100C005010906A1018506050719E0292B
:10042000E7150025019508750181020507190029C6
:10043000EF1500250195F0750181020508190129C4
:1004400005950575019102950175039101C005019E
:100450000906A101050719E029E7150025019508FE
:10046000750181029501750881010507190029FFB1
:10047000150026FF00950675088100050819012959
:1004800005150025019505750191029501750391EA
:1004900001C009023B00020100A0FA0904000001AA
:1004A0000301010009211101000122440007058117
:1004B00003080001090401000103000000092111E3
:1004C000010001226D0007058203200001120100D6
:1004D0000200000008534601000100010200010C67
:1004E0000343006F0072006E006500000010036699
:1004F000006F006F007300740061006E0000000464
:100500000309040000000000003E5B4F5B3E003E1C
:100510006B4F6B3E001C3E7C3E1C00183C7E3C1822
:10052000001C577D571C001C5E7F5E1C0000183CA1
:10053000180000FFE7C3E7FF00001824180000FFC1
:10054000E7DBE7FF0030483A060E00262979292626
:1005500000407F05050700407F05253F005A3CE726
:100560003C5A007F3E1C1C0800081C1C3E7F0014E7
:10057000227F2214005F5F005F5F0006097F017F1A
:1005800000006689956A0060606060600094A2FF68
:10059000A2940008047E04080010207E20100008A9
:1005A000082A1C0800081C2A0808001E1010101039
:1005B000000C1E0C1E0C0030383E383000060E3E7B
:1005C0000E060000000000000000005F00000000B8
:1005D0000700070000147F147F1400242A7F2A12CA
:1005E00000231308646200364956205000000807B3
:1005F000030000001C224100000041221C00002AD0
:100600001C7F1C2A0008083E08080000807030008B
:1006100000080808080800000060600000201008BA
:100620000402003E5149453E0000427F40000072F6
:1006300049494946002141494D33001814127F10A1
:10064000002745454539003C4A49493100412111BF
:10065000090700364949493600464949291E000024
:100660000014000000004034000000000814224183
:10067000001414141414000041221408000201593B
:100680000906003E415D594E007C1211127C007F2C
:1006900049494936003E41414122007F4141413EA6
:1006A000007F49494941007F09090901003E414154
:1006B0005173007F0808087F0000417F410000203F
:1006C00040413F01007F08142241007F40404040EC
:1006D000007F021C027F007F0408107F003E414122
:1006E000413E007F09090906003E4151215E007F1D
:1006F000091929460026494949320003017F0103AF
:10070000003F4040403F001F2040201F003F403836
:10071000403F00631408146300030478040300617D
:1007200059494D4300007F41414100020408102017
:1007300000004141417F00040201020400404040AA
:100740004040000003070800002054547840007F18
:100750002844443800384444442800384444287F1E
:100760000038545454180000087E0902001824244C
:100770001C78007F080404780000447D40000020BD
:1007800040403D00007F102844000000417F4000B1
:10079000007C04780478007C080404780038444421
:1007A0004438007C1824241800182424187C007C69
:1007B000080404080048545454240004043F44240A
:1007C000003C4040207C001C2040201C003C40306D
:1007D000403C004428102844004C9090907C0044F9
:1007E00064544C44000008364100000000770000CB
:1007F000000041360800000201020402003C2623EA
:10080000263C000000000000000000000000000086
:10081000000000C0E0F0F8F81800C0F0FCFEFFFF98
:10082000FFFFFFFFFF7E00000000000000000080CF
:10083000C0E0E0E0E0E0E0E0E0C080000000008038
:10084000C0E0E0E0E0E0E0E0E0C080000000E0E0E8
:10085000C0C0E0E0E0E00000E0E0C0C0E0E0E0E0D8
:10086000E0C0800000000080C0E0E0E0E0E0E0E008
:10087000E0C0800000000000000000000000000058
:1008800000E0F0F0F0E0ECEEF7F37020007C7C7C10
:100890007E007E7E7E7F7F7F000080C0E07E5B4F9B
:1008A0005BFEC00000C000DCD7DEDEDED7DC00C0AF
:1008B0000000000000000000000000000000000038
:1008C000000000000000000000000000F8FCFEFF37
:1008D000E000FFFFFFFFFFFF80FFFFFFFFFFFFFFC5
:1008E000FFFF1F0701000000000000000000FFFFE5
:1008F000FF8100000000000081C3C3C30000FFFFB0
:10090000FF8100000000000081FFFFFF0000FFFFEB
:10091000FF01000000000000FFFFFF0100000000D9
:1009200001FFFFFF0000FFFFFF9D1C1C1C1C1C1C87
:100930009DDFDFDF0000000000000000000000007D
:10094000000F1F3F7F7F7F7F7F3F1E0C001F1F1FF9
:100950003F003F3F3F7F7F7F00307B7F783020200C
:1009600030787F3B0003000F7F0F0F0F7F0F0003D6
:100970000000000000000000000000000000000077
:10098000000000000000000000000000030F1F3FF7
:100990003F3F3F1F1F3F3F7F7F7F3F3F1F3F7F7F87
:1009A0007F7F7C7878381C0F000000000000000179
:1009B00003070707070707070703010000000001F7
:1009C00003070707070707070703010000000707DA
:1009D00007000000000000000707070000000000FB
:1009E00000070707000000010307070707070707BD
:1009F00007030100000000000000000000000000EC
:100A000000000000000000000000000000000000E6
:100A100000000000000000000000000000000000D6
:100A200000000000000000000000000000000000C6
:100A300000000000000000000000000000000000B6
:100A40000000000001010101010101010102020297
:100A5000020202020202030303030303030304046A
:100A60000404040404050505050506060606060734
:100A70000707070708080808090909090A0A0A0BED
:100A80000B0B0C0C0C0D0D0D0E0E0E0F0F0F10108E
:100A90001111111212131314141515161617171815
:100AA0001819191A1A1B1B1C1D1D1E1E1F20202180
:100AB0002222232424252626272829292A2B2C2DC7
:100AC0002D2E2F30313232333435363738393A3BE8
:100AD0003C3D3E3F404142434445464748494A4CDD
:100AE0004D4E4F50515354555658595A5B5D5E5FA9
:100AF000616264656668696B6C6D6F70727375773F
:100B0000787A7B7D7E8082838587888A8C8E8F91A0
:100B1000939596989A9C9EA0A2A3A5A7A9ABADAFCA
:100B2000B1B3B5B7BABCBEC0C2C4C6C9CBCDCFD1B4
:100B3000D4D6D8DBDDDFE2E4E7E9EBEEF0F3F5F85D
:100B4000FAFDFF0011241FBECFEFDAE0DEBFCDBFFC
:100B500012E0A0E0B1E0E2E6F7E502C005900D92F8
:100B6000AE36B107D9F726E0AEE6B2E001C01D927D
:100B7000AE3AB207E1F7C0D50C94AF2B41CA0E9440
:100B8000FD262FEF84E39CE0215080409040E1F768
:100B900000C000009AE088E10FB6F894A895809311
:100BA00060000FBE90936000FFCFA6E0B0E0EBEDD9
:100BB000F5E00C94EA2A26E0FC01DE011196019092
:100BC0000D922A95E1F7FC01258189819A812223E2
:100BD00059F0662349F00E942A1D182F682F898139
:100BE0009A810E946D2003C00E943A20182F6981CB
:100BF0007A81812F0E9490182696E3E00C94062BB0
:100C0000A0E0B0E0E6E0F6E00C94E42AFC012481E8
:100C1000222309F4B8C47C0161E0C7DFEC01F701CD
:100C2000358188519C473323C1F121812093A7024C
:100C300020812093A60220E220930D01D093A502EB
:100C4000C093A402AE0150524115504228F4F7015E
:100C50002681207F79F426C0AE01505441155041C1
:100C600020F4F7012681207F29F4AE015A95411521
:100C70005F4118F4FE01FF2707C0AE01405A5245FC
:100C80004032510578F0FE01ED33F10558F4E25A97
:100C9000FE4FE491E0930D0105C08730910508F007
:100CA0007FC1E6C08730910508F4E2C010929F032F
:100CB000CE019057839708F00DC184E090E00E9428
:100CC000332B9093A9038093A803FE01E150F047D2
:100CD000E232F10520F4EA5AFF4F0C94932B8091F5
:100CE000A8038160ACC08091A9038860B4C08091E2
:100CF000A8038260A4C08091A80320C08091A803AB
:100D000088609DC08091A9031EC08091A903826064
:100D1000A2C08091A803806192C08091A8038062E4
:100D20008EC08091A80380648AC00E94FD268091B5
:100D3000A803806884C08091A803886084607FC015
:100D40008091A9038260816086C08091A8038E7F14
:100D500076C08091A903877F7EC08091A8038D7F94
:100D60006EC08091A80320C08091A803877F67C0D0
:100D70008091A9031EC08091A9038D7F6CC08091D2
:100D8000A8038F7E5CC08091A8038F7D58C080919E
:100D9000A8038F7B54C00E94FD268091A8038F7703
:100DA0004EC08091A803877F8B7F49C08091A903A3
:100DB0008D7F8E7F50C08091A80382FB222720F96F
:100DC00091E0922790FB82F990FB83F938C08091E3
:100DD000A903982F909591708E7F892B90FB81F9B4
:100DE0003AC08091A80386FB222720F991E0922740
:100DF00090FB86F924C00E94FD268091A80387FB02
:100E0000222720F991E0922790FB87F918C061E032
:100E100001C060E08EE090E00E94472B1EC08091F0
:100E2000A80384FB222720F991E0922790FB84F904
:100E300006C08091A803982F909590FB80F980932D
:100E4000A8030BC08091A90383FB222720F991E01E
:100E5000922790FB83F98093A9036091A803709176
:100E6000A90384E090E00E94612B0E94FD2645C00A
:100E7000FC01E858FF4F0C94932B06E221EE41EE63
:100E80006AE17CE723C007E225EE45EE6BE17CE7F3
:100E90001DC006E221EE40EE68E17CE717C007E2E4
:100EA00025EE44EE69E17CE711C006E221EE42EE58
:100EB0006CE17CE70BC007E225EE46EE6DE17CE7D6
:100EC00005C008E221E045EE6EE17CE7C7010E9423
:100ED000541413C08091B003C631FCE7DF07F9F466
:100EE0008A7A91E009F490E090937002811118C31E
:100EF00089E20E94BC130E94691C80915204877091
:100F000009F441C3F7018581882309F43CC380912A
:100F1000A90382FF38C382E00E94B12034C38272E9
:100F2000FE01E052F847EB30F10508F048C0E15807
:100F3000FF4F0C94932B882329F00E94EE24DDCFE1
:100F40008823D9F30E94F624D8CF882329F00E9461
:100F5000DE24D3CF8823D9F30E94E624CECF882382
:100F600029F00E94C824C9CF8823D9F30E94D32432
:100F7000C4CF882329F00E94B224BFCF8823D9F39D
:100F80000E94BD24BACF882329F00E949C15B5CFBA
:100F90008823D9F30E94A615B0CF0E94F824ADCFC4
:100FA000C6312CE7D20709F4E4C28091B003827203
:100FB000FE01E054F847EF30F10508F4B3C2CE016A
:100FC000805E92458097A8F4311115C0CF7181E001
:100FD00090E09C0102C0220F331FCA95E2F7E9019D
:100FE000622F83E090E00E94472BCE010E94D5261D
:100FF00084CF3323E1F0CB358CE7D80791F0CC35A3
:101000009CE7D90731F0CA35ECE7DE0771F481E0DF
:1010100009C08091A90382FB882780F991E0892784
:1010200001C080E00E94C72068CF311158C2F7018B
:10103000C081D181CE01332341F00E942A1D182F97
:10104000682FCE010E946D2003C00E943A20182F05
:10105000BE01812F0E9490180E94AD18D82FC92F71
:10106000D82EF7011581068102950F7080915204E8
:10107000877001F11123F1F0892F807F803469F0AE
:1010800080E28D0F8830B0F0892F807E803229F485
:10109000F1E0FD1778F4002369F08091A90382FF45
:1010A00009C082E00E94B120809152048770CC2454
:1010B000C3948111C12CBC2EB2948FE0B8228B2D29
:1010C00090E08C30910508F0E9C1FC01E657FF4F34
:1010D0000C94932B8C2F807FCF70882311F0C295B6
:1010E000C07F1123B9F0CC2309F4C6C180E28D0F73
:1010F000883010F0D11006C09091B003C92BC09376
:10110000B00305C090915404C92BC09354040E94AD
:10111000691CB2C18D2F0E942F27CC2309F4BEC1B8
:10112000D05ED83080F1DD2071F1C09590915404EB
:10113000C923C09354042AC08C2F807FCF70803283
:1011400011F0C295C07FDD2029F021E0D21609F40C
:101150004CC055C08091A90382FD1BC0112369F0CA
:10116000CC2339F09091B003C92BC093B0030E94F7
:10117000691C80E00E94572791C180E00E942F27C0
:10118000CC2309F48BC18C2F0E94C3190E94691CC7
:1011900085C1112381F00023B1F1013009F07EC136
:1011A000909153048C2F8923C81709F477C1C92B58
:1011B000C093530473C1011171C18C2F0E941E276B
:1011C000809153049C2F982329F09C2F909589237C
:1011D00080935304209171028C2F822309F45EC105
:1011E000C0952C232093710259C1112321F00630A0
:1011F00008F054C108C0053008F050C115C01123D3
:1012000031F0011139C18C2F0E94252747C10023DD
:1012100059F0D93309F03FC13FEF87EE93E03150E9
:1012200080409040E1F735C18C2F0E941E2736C1C7
:101230008C2F86958695837019F0813061F02EC1D0
:10124000112321F08D2F9C2F937002C080E090E03D
:101250000E941A142AC1112321F08D2F9C2F937004
:1012600002C080E090E00E94F3131FC18C2F8370B6
:1012700009F041C0111116C12D2F22952695277016
:10128000220F220F8D2F8F7090E0022E02C0880F48
:10129000991F0A94E2F7D4FF0BC04FE050E002C060
:1012A000440F551F2A95E2F79A012095309502C008
:1012B00020E030E0C695C695C370C23099F068F45E
:1012C0004091800250918102C13029F0822B932BF2
:1012D0008423952304C0842B952B822B932B0E946F
:1012E000D526E0C0822B932B209180023091810281
:1012F00082279327F4CF112319F08C2F817001C01E
:101300008695882309F4CEC02D2F22952695277027
:10131000220F220F8D2F8F7090E0022E02C0880FB7
:10132000991F0A94E2F7D4FF0BC04FE050E002C0CF
:10133000440F551F2A95E2F79A012095309502C077
:1013400020E030E0C695C695C370C23079F0B8F49D
:1013500040919B0250919C02C13029F0822B932B2B
:10136000842395230EC0842B952B09C0822B932BAD
:1013700020919B0230919C028227932702C0822BEE
:10138000932B0E94D0268EC0CF70112339F08C2F62
:101390000E94DD208D2F0E94252784C08D2F0E9462
:1013A0001E278C2F0E94A1207DC08D2FE2EFDE161C
:1013B00089F1ED1538F0F0EFDF1659F021EFD21674
:1013C00021F156C033EFD31661F194EFD916C9F06D
:1013D0004FC0112391F0053008F060C0CF7181E05B
:1013E00090E002C0880F991FCA95E2F720919B02F6
:1013F00030919C028227932721C0063008F04EC00E
:10140000EDCF8091A90382FD1CC0112329F08C2F00
:101410008F7122C01123D9F38C2F8F710E94A120CC
:101420003DC0112349F0CF7181E090E002C0880FE8
:10143000991FCA95E2F702C080E090E00E94D02692
:101440002DC0112361F08C2F8F71E8E08E9F9001E9
:1014500011242360209352040E94DD201FC081E0EC
:101460000E94B1200230D0F082E00E94B12016C06C
:10147000112321F0002359F28D2F7CCE002361F23D
:10148000893349F4FFEF27EE33E0F150204030403C
:10149000E1F700C000008D2F0E942F2788EF8B0DF1
:1014A000843018F40E94411416C0CC20A1F0809121
:1014B000520480FD10C0F7011582869586958695A9
:1014C0000E94DD20C7019CDB8091520486958695A1
:1014D00086950E94A12060E0C70167DB54C0C1303F
:1014E000FCE7DF07E1F0C3302CE7D20791F0C1152C
:1014F000DC4709F09CCD0E94FD269FEFE4E3FCE071
:101500009150E040F040E1F700C000000E940D1350
:10151000F4CC6FEF7FEF80E090E00E94612B2FDB37
:1015200085E3E7CCEA56FF4F0C94932B809191040E
:10153000837011F410924101809191048C7F81603D
:1015400009C080919104837011F010924101809143
:1015500091048C7F809391040E947B21CECC8823C0
:1015600029F00E946815C9CC8823D9F30E948415FC
:10157000C4CC80917002811104C089E20E948E1354
:10158000BACC85E3FBCFCDB7DEB7E9E00C94002BF6
:10159000ABE1B0E0EEECFAE00C94E92A4E8B5F8B05
:1015A000688F798F8A8F9B8F9111109254048E01CE
:1015B000015F1F4F87E0D8011D928A95E9F786E009
:1015C000FE017696D80101900D928A95E1F78B89FC
:1015D000882331F061E0C801E8DA61E0C801E5DAAA
:1015E00087E0FE013F96DE01189601900D928A95E4
:1015F000E1F7CE0108960E94661D81112CC087E09C
:10160000FE013896DE01119601900D928A95E1F760
:101610006C85662301F12091180430E0C901019620
:10162000877099274091510450E08417950761F124
:101630006D8397E0929FD001939FB00D1124A75E18
:10164000BB4FFE01319601900D929A95E1F7809380
:1016500018040E94BE1C17E0809151049091180458
:101660008917F9F0189FC0011124875E9B4F0E94D3
:10167000661D8823B1F08091510490E00196877037
:10168000992780935104E8CF0E94FD2610921804F8
:1016900010925104E1E1F4E087E0DF011D928A95A8
:1016A000E9F76B96E4E00C94052B843028E292076E
:1016B00001F160F4893022E29207D9F0863124E208
:1016C0009207B9F08730914289F413C08D3022E33C
:1016D000920779F020F48E30914341F40AC08F30A4
:1016E00024E3920731F08333984319F086EE90E0BB
:1016F00008958AEA90E00895A6E0B0E0E2E8FBE011
:101700000C94DB2A85B7806885BF85B7806885BF64
:1017100084B7877F84BF0FB6F894A8958091600046
:10172000886180936000109260000FBE90E080E8B6
:101730000FB6F89480936100909361000FBE81E032
:101740008093400180EB95E190936F0280936E024D
:1017500056D5C8D58091E20084608093E2007894E9
:10176000809187048823A1F01091E9001F70909167
:10177000EC00892F817090FD80E8182B1092E90011
:101780008091E80083FD0E94B2211F701093E90050
:1017900082E084BD93E095BD9AEF97BD80936E0083
:1017A00010927202109273021092740210927502DB
:1017B0008091D80080618093D8002AE12A95F1F7C2
:1017C00000C08091D900182F117080FD03C017D57B
:1017D000109287041093A0031093A10310930001AB
:1017E00011110E94702980910001809100018111E6
:1017F00002C094E001C090E090937F0284E0891BD6
:1018000080937E020AE411E05EE4E52E51E0F52EBD
:10181000D8018D918D018F3F11F00E940B18E016B9
:10182000F106B1F70EE411E044E5E42E41E0F42EB8
:10183000F80181918F018F3F11F00E940B18E01683
:10184000F106B1F788E0E2E8F2E0DF01282F1D920F
:101850002A95E9F7E6E7F2E0DF011D928A95E9F7BC
:1018600080E090E00E94332B833E9E4FB1F163EE07
:101870007EEF80E090E00E94612B60E082E090E0EB
:101880000E94472B81E090E0909381028093800238
:1018900061E083E090E00E94472B60E074E184E027
:1018A00090E00E94612B0E94B62640E050E0BA0111
:1018B0008FE090E00E94592B40E050E0BA0183E1B4
:1018C00090E00E94592B48E050E067E170E081E928
:1018D00094E00E94382B1092990482E090E00E94DC
:1018E0002B2B8093920284E090E00E94332B909304
:1018F000A9038093A8030E94CA19EFEFF6E721E03D
:10190000E150F0402040E1F700C000000E94CA19F9
:101910008091A103811102C0E4E001C0E0E0F0E0A9
:10192000EE57FD4F808181FF07C06FEF7FEF80E0B2
:1019300090E00E94612B71D683E090E00E942B2BF7
:1019400090E00E94D52696D381E08093990448E0E8
:1019500050E067E170E081E994E00E941B2B109257
:101960009904809191048C7F11F40E94B626809195
:10197000A003882311F080E001C082E08093C802B8
:1019800080E880939A040E9414286BE070E081EB59
:1019900091E00E941E15882309F442C08091C8027C
:1019A00065E070E081FD39C08CEA91E00E941E156F
:1019B0008823B1F16DE070E08AE991E00E941E1584
:1019C000882371F161D6DC01CB01805A9541AF4F7C
:1019D000BF4F8093F5029093F602A093F702B09365
:1019E000F802EDE9F4E080E092E0DF019C011D9255
:1019F00021503040E1F7F093A406E093A3068FEF67
:101A00009FEF90939C0480939B0481E08093FA0263
:101A10008093F9021092C90203C087EA91E0C6CF11
:101A20008091A003811102C00E94732981E091E09E
:101A30009093A5038093A40322242394312C8091B6
:101A40008704853009F066C010E400E122E1F22E3F
:101A500080918704853009F05AC0809187048430D2
:101A600031F10E940125F7D71092AA0348E150E016
:101A70000FB6F894A895409360000FBE10936000D5
:101A800083B7817F846083BF83B7816083BF78948D
:101A9000889583B78E7F83BF0FB6F894A895809101
:101AA0006000886180936000109260000FBE0E9409
:101AB000CA19E2E8F2E0AAE8B2E080E021912D93B1
:101AC00091E0211101C090E0892B52E0EA38F5073E
:101AD000A9F7882309F4BCCF80918604882309F4F0
:101AE000B7CF09BDF9BC09B400FEFDCF8091D80085
:101AF0008F7D8093D8008091E00082608093E00029
:101B00008091E00081FDFCCF0E94FD26A1CF0E94C4
:101B1000FD26B7D60E94CA1983E9A82E82E0B82E06
:101B200092E8892E92E0992E2BE932E0D401F5015A
:101B300091918D9189272E173F0719F08823C1F3C2
:101B400006C0811104C00E94531BD12C5EC040907E
:101B5000A0030AE8E02E02E0F02ED12CD4016D9013
:101B60004D01F5017080762409F441C000E010E0D9
:101B7000CC24C394872D8C2191F1562C5C204420D9
:101B800009F1D7018C91282F30E0C101002E02C04D
:101B9000880F991F0A94E2F782239323892B91F4EB
:101BA0000983DA827DD59C838B83B1E0BD8391E08C
:101BB000511001C090E09E8349815A816B817C81E4
:101BC0008D81E6DC51100BC0C101002E01C0880FD1
:101BD0000A94EAF78095F701908189238083CC0CE1
:101BE0000F5F1F4F0630110529F6D5016C92D39473
:101BF000BFEFAB1ABB0AEFEFEE1AFE0AF8E0DF12F6
:101C0000ADCF0E942218DD24D3940E94012580913B
:101C1000FA02882309F4DFC10091CA021091CB02B5
:101C20003FD5801B910BC29708F4D3C039D5909350
:101C3000CB028093CA028DE994E09093A40680932E
:101C4000A3068091A003882309F4BFC08DED91E025
:101C50000E946A2120919B0230919C02832F992738
:101C6000009719F09C0188E001C080E0A901B4E070
:101C700056954795BA95E1F74115510511F08C5FDE
:101C80009A01A901569547955695479541155105D5
:101C900011F08E5F9A0136952795232B09F08F5FFF
:101CA000813059F038F0823059F0833061F482ECA1
:101CB00091E00BC085ED91E008C08FEC91E005C08C
:101CC00089EC91E002C08CEB91E00E947721809139
:101CD000A702805D0E94EB208BEE91E00E946A21BA
:101CE0008091A602805D0E94EB2087EE91E00E9429
:101CF0006A218090A4029090A50280910B0190919E
:101D00000C018816990639F48091A302803219F4E7
:101D10008DE992E03AC090920C0180920B0180E232
:101D20008093A302A12CB12C1092A202E2EAEE2E23
:101D3000E2E0FE2E00E010E0C501B4012AE030E050
:101D400040E050E00E94712B605D603319F4011592
:101D5000110539F081149104A104B10419F460E271
:101D600001C060E3D7016E937D01C501B4012AE093
:101D700030E040E050E00E94712B49015A010F5FB2
:101D80001F4F05301105C1F6C3CF7C010196F70145
:101D900020812032D1F301900020E9F78F0101501A
:101DA0001109E016F10630F4D7018D917D010E94F2
:101DB000EB20F7CF85EE91E00E946A2180910D0122
:101DC0000E94EB2081E00AD604C08DEE91E00E94D3
:101DD0006A2180919B0490919C04892B31F480911D
:101DE000F902882309F4F7C0E1C08091FA02882340
:101DF000B1F38091C9028111F2CF46D620919B04A4
:101E000030919C042115310551F380E0682E712C2E
:101E10005101082E02C0AA0CBB1C0A94E2F7A501CE
:101E200042235323452B11F48F5FF0CF9091C802CA
:101E3000930175E0220F331F7A95E1F790FF13C0ED
:101E400065E0369527956A95E1F7220F220F220F5C
:101E50002093100110921301295F2093110183E058
:101E60008093140111C0220F232F221F330B3195B1
:101E70008295880F80768093100120931301815EF4
:101E8000809311012093140124E630E047E050E0F4
:101E90006EE071E088E70E944928892B09F09FCF06
:101EA0008091C80280FF61C080E2E8EAF2E0DF01D1
:101EB0001D928A95E9F735E0660C771C3A95E1F7B3
:101EC00048E5442E41E0542E64E571E0F201819131
:101ED0002F01DB019D91BD019301290F311DF901F6
:101EE000E356FB4F4F0190E088559D4FFC0107E002
:101EF0009F01281B390BE22C01C0EE0C2A95EAF752
:101F0000A401F12CDA011D91AD011E21202F2F1902
:101F10002770C22E022E000C330BB12F01C0BB0F55
:101F2000CA94EAF7CB2E31952195310927703327D2
:101F300001C016952A95EAF7C12A1081C12AC082EC
:101F4000F39428E0F212DECF015031960F3F81F674
:101F50003CE5431631E0530609F0B8CF04E610E043
:101F600020E230E048EA52E00DC0C30125E0880FCE
:101F7000991F2A95E1F7AC0143565B4F04E610E048
:101F800020E230E060E488E70E94D628892B09F03F
:101F900026CFA094B09480919B0490919C04A82299
:101FA000B922B0929C04A0929B0419CF6DD30091EA
:101FB000F5021091F6022091F7023091F802DC014F
:101FC000CB01801B910BA20BB30B8F3F9F4FAF4FE9
:101FD000BF4708F440D5D11057D553D49091CC02C7
:101FE000891709F42CCD8093CC024ED328CD2091B3
:101FF000E4003091E50095E64091EC00842F81707B
:1020000040FF23C08091E80080FD1DC080918704BF
:10201000882399F0853099F08091EB0085FD11C0FF
:102020004091E4005091E5002417350729F39150C1
:1020300011F09A01E1CF84E0089582E0089583E0F1
:10204000089581E0089580E008954091E80042FFFE
:10205000DDCF0895089580913E010895FC01EE0FB3
:10206000FF1F8E0F9F1FFC01E550FD4F61834083D2
:1020700022830895539A08950F931F93CF93DF936C
:102080008B01EA0190918704943071F58F708093F1
:10209000E9008FEF9091E800815095FD06C095ED25
:1020A0009A95F1F700008111F5CF8091E80085FF46
:1020B0001BC09DDF882361F08091E8008E778093BC
:1020C000E80012C0F80181918F018093F1002197FF
:1020D000209791F38091E80085FDF4CF8091E8008E
:1020E0008E778093E800E5CFDF91CF911F910F911C
:1020F000089543E050E0BC0182E0BECF40E250E0F2
:10210000BC0182E0B9CFCF93DF93EC0148E050E00F
:10211000BC0181E0B1DF88E0FE01ADE7B4E00190F1
:102120000D928A95E1F7DF91CF9108958BB1877F6A
:102130009BB198602FB7F894EBEFF2E033E0ED3904
:10214000F30789F0319148E09BB9000000C037FFE8
:102150008BB9330F000000C000C000C08BB900C0B5
:102160004A9591F7EBCF2FBF8FE594E00197F1F7F8
:1021700000C0000008951F920F920FB60F92112415
:102180002F933F934F935F936F937F938F939F937F
:10219000AF93BF93CF93DF93EF93FF93C091E90089
:1021A000CF708091EC00D82FD17080FDD0E81092D4
:1021B000E9008091F000877F8093F00078940E947E
:1021C000B2211092E9008091F00088608093F000C5
:1021D000CD2BCF70C093E900FF91EF91DF91CF91AC
:1021E000BF91AF919F918F917F916F915F914F912F
:1021F0003F912F910F900FBE0F901F901895E8ED13
:10220000F0E080818E7F80831092E2001092DA00ED
:102210001092E100A0EEB0E08C9181608C938081FF
:102220008F77808319BCA7EDB0E08C918E7F8C9363
:1022300080818F7E80831092AF03089580918904FE
:1022400087FF11C08091E80082FD05C0809187045E
:102250008111F8CF11C08091E8008B770BC080917D
:102260008704882349F08091E80080FFF8CF8091AF
:10227000E8008E778093E8000895982F973068F5EE
:102280009093E900981739F07091EC002091ED00DF
:102290005091F00003C0242F762F50E021FD02C0A2
:1022A0009F5FECCF3091EB003E7F3093EB0030919D
:1022B000ED003D7F3093ED003091EB0031603093C5
:1022C000EB007093EC002093ED005093F000209110
:1022D000EE0027FDE5CF80E008958F708093E90040
:1022E00081E00895A0E0B0E0E8E7F1E10C94E52A90
:1022F000C8EDD0E088818F7E8883E7EDF0E08081B3
:102300008160808384E082BF81E08093AF03888115
:102310008E7F888302EE10E0F80110821092DA00BE
:1023200081EEC82ED12CF601108288818F778883A8
:1023300088818068888388818F7D888319BC10920A
:10234000870410928804109286041092850490EEFF
:10235000E92EF12CF70180818B7F80838881816059
:10236000888342E060E080E088DFF60180818E7F34
:102370008083F80180818160808380818860808390
:10238000F70180818E7F8083888180618883CDB7CB
:10239000DEB7E8E00C94012B1F920F920FB60F925C
:1023A00011242F933F934F935F936F937F938F935A
:1023B0009F93AF93BF93EF93FF938091E10082FFD0
:1023C00009C08091E20082FF05C08091E1008B7F0F
:1023D0008093E1008091DA0080FF28C08091D800CE
:1023E00080FF24C08091DA008E7F8093DA00809194
:1023F000D90080FF16C080E189BD82E189BD09B4A2
:1024000000FEFDCF81E0809387048091AF038111AE
:102410000DC0F5DE67DF8091E20084608093E2000A
:1024200005C019BC109287041092AF038091E1009F
:1024300080FF1AC08091E20080FF16C08091E20008
:102440008E7F8093E2008091E20080618093E200C1
:102450008091D80080628093D80019BC85E0809379
:10246000870483E0809340018091E10084FF37C0BE
:102470008091E20084FF33C080E189BD82E189BDA3
:1024800009B400FEFDCF8091D8008F7D8093D800E5
:102490008091E1008F7E8093E1008091E2008F7E49
:1024A0008093E2008091E20081608093E20080915D
:1024B0008804882311F084E007C08091E30087FD41
:1024C00002C081E001C083E080938704809187048B
:1024D000843011F081E001C082E08093400180915E
:1024E000E10083FF2BC08091E20083FF27C0809131
:1024F000E100877F8093E10082E08093870410925F
:1025000088048091E1008E7F8093E1008091E20059
:102510008E7F8093E2008091E20080618093E200F0
:1025200042E060E080E0A9DE8091F0008860809366
:10253000F00081E08093400180933F01FF91EF9193
:10254000BF91AF919F918F917F916F915F914F91CB
:102550003F912F910F900FBE0F901F9018952091D3
:102560008F04309190042617370748F061157105E4
:1025700039F42091E8002E772093E80001C0B901DA
:10258000FC0120E06115710579F1809187048823B1
:10259000F1F18530F1F18091E80083FD3CC080913C
:1025A000E80082FD2EC08091E80080FFEBCF2091F3
:1025B000F3008091F20090E0922B6115710551F0CB
:1025C0008830910538F421912093F1006150710910
:1025D0000196F3CF21E0089709F020E08091E80010
:1025E0008E778093E800CECF2111CFCF0AC08091A3
:1025F0008704882361F0853061F08091E80083FDD5
:102600000AC08091E80082FFF2CF80E0089582E066
:10261000089583E0089581E0089587E797E7909310
:102620000108809300089AE088E10FB6F894A89515
:10263000809360000FBE90936000FFCF78941F924C
:102640000F920FB60F9211248F939F93AF93BF9366
:102650008091AB039091AC03A091AD03B091AE0318
:102660000196A11DB11D8093AB039093AC03A09381
:10267000AD03B093AE03BF91AF919F918F910F9037
:102680000FBE0F901F9018952FB7F8946091AB0371
:102690007091AC038091AD039091AE032FBF08956C
:1026A0002FB7F8948091AB039091AC03A091AD0348
:1026B000B091AE032FBF08951F920F920FB60F92E5
:1026C00011248F939F93AF93BF938091AA0381119D
:1026D00013C08091AB039091AC03A091AD03B09176
:1026E000AE034196A11DB11D8093AB039093AC0343
:1026F000A093AD03B093AE03BF91AF919F918F9123
:102700000F900FBE0F901F901895CF93DF93EC01A1
:10271000C7DF8C1B9D0BDF91CF91089590913F01F6
:10272000913021F49091A80397FD03C0EDECF2E005
:102730001DC0E82FE695E695E695EE31E0F4F0E071
:10274000EB52FD4F877021E030E0A90102C0440F39
:10275000551F8A95E2F7CA01809592818923828369
:102760000895319652E0E33DF50729F092818913EF
:10277000F8CF1282F6CF089590913F019130D1F4B5
:102780009091A80397FF16C0E82FE695E695E69589
:10279000EE3140F5F0E0EB52FD4F877021E030E084
:1027A000A90102C0440F551F8A95E2F7CA01928120
:1027B000892B16C0AFECB2E0EFEF90E02D918217BD
:1027C00089F0EF3F19F4211101C0E92F9F5F963086
:1027D000A9F7EF3F39F00E2E000CFF0BE353FD4F2E
:1027E000828308950895A3E0B0E0E9EFF3E10C944B
:1027F000EB2A2091A6033091A70328173907B1F0DF
:102800009093A7038093A603E091A403F091A503FE
:10281000309761F00084F185E02D309739F024E0A5
:1028200029839B838A83CE01019609952396E2E052
:102830000C94072BA3E0B0E0E0E2F4E10C94EB2A67
:102840002091A2033091A30328173907B1F0909388
:10285000A3038093A203E091A403F091A503309712
:1028600061F00084F185E02D309739F023E0298371
:102870009B838A83CE01019609952396E2E00C940E
:10288000072B8091A003882369F0E091A403F091C5
:10289000A503309739F00190F081E02D309711F0C9
:1028A0000995089580E00895AF92BF92CF92DF928C
:1028B000FF920F931F93CF93DF936C015B01C42FA3
:1028C000D22FF02EFC0185818823A9F040939F032D
:1028D000E7DE90939E0380939D0380E28C0F883007
:1028E00008F072C0C77081E001C0880FCA95EAF78E
:1028F0000E94252769C080919F03481359C0009109
:102900009D0310919E03CCDE801B910B8C01B601C0
:10291000C5010E94550B0817190708F049C0CD17CB
:1029200029F180E28C0F883040F4C77081E001C04B
:10293000880FCA95EAF70E941E2780E28D0F883023
:1029400048F481E09D2F977001C0880F9A95EAF7AF
:102950000E942527F9E3FF1619F000E010E002C0FD
:1029600000E510E08F2D0E94572708C099E3F91267
:10297000F4CF89E30E94572700E510E00115110507
:1029800049F08FE99FE00197F1F700C00000015086
:102990001109F4CF8F2D0E942F2780E28D0F8830F0
:1029A00098F4D77081E001C0880FDA95EAF70AC081
:1029B00080E28C0F883040F4C77081E001C0880F3E
:1029C000CA95EAF70E941E27DF91CF911F910F91C0
:1029D000FF90DF90CF90BF90AF900895CF93E82FF6
:1029E0002091A3063091A4062D59344040919A04B9
:1029F000642F70E0C9010E94C72A481B842FEE2370
:102A000051F066E00E94652BC82FC150A8F080E20B
:102A10000E94EB20FACFA901480F511D41155240E9
:102A200018F080E020E030E0280F311D23563B4FA6
:102A30003093A4062093A306CF910895AB0124E61A
:102A400030E0BC0188E70E948F2821E0892B09F043
:102A500020E0822F08958091FA029091F902882354
:102A600081F0992361F062E070E08FE292E0E6DFAE
:102A7000811103C08091F90208951092F90290919A
:102A8000F90281E0892708958091FA028823E9F00C
:102A9000FBDDDC01CB01805A9541AF4FBF4F8093E6
:102AA000F5029093F602A093F702B093F80280919A
:102AB000F90281110AC062E070E08DE292E0BEDFAF
:102AC000882319F081E08093F9028091F90208953A
:102AD000809196048F3F41F0853079F0823079F013
:102AE000882379F0E0E001C0E3E0F0E0E45AFE4F33
:102AF0008081809396040C947B21E1E003C0E2E0A6
:102B000001C0E3E0E150F1CF809196048F3F69F07E
:102B1000853069F0823069F0E0E0F0E0E45AFE4F81
:102B20008081809396040C947B21E0E003C0E1E077
:102B300001C0E2E0EF5FF1CFE1E9F4E0248130E1B0
:102B4000231B08F420E024830C947B21E1E9F4E0CA
:102B5000248130E1230F08F42FEF24830C947B2190
:102B600080E008959091A80392FF10C041E0282FC3
:102B70002471243009F040E031E0282F28712830FA
:102B800009F030E0431711F02CE0822793FF10C0CA
:102B900041E0282F2471243109F040E031E0282F52
:102BA0002871283109F030E0431711F02CE082271A
:102BB0003091A90330FF10C051E0282F217121303E
:102BC00009F050E041E0282F2871283009F040E05A
:102BD000541711F029E0822731FF10C041E0282F5F
:102BE0002171213109F040E031E0282F287128318E
:102BF00009F030E0431711F029E0822794FF02C06A
:102C000083FD877E08958238910569F1B0F48133A0
:102C1000910509F475C048F48932910509F467C03B
:102C20008A32910509F471C008958533910509F43C
:102C300059C089339105B9F00895833E910589F112
:102C400038F4803E9105D1F0823E910529F1089536
:102C5000863E9105C9F1873E9105D9F1843E9105E3
:102C600009F06CC027C02091A80320FD57C021FDAA
:102C700055C02091A90323FD5BC008958091A8034E
:102C800080FD48C08091A90380FF48C08091A803BF
:102C900084FD46C083EE51C08091A80382FF3CC0F2
:102CA000F5CF8091A80382FD37C08091A90380FDF4
:102CB00035C0ECCF8091A90381FF36C08091A80375
:102CC00084FD2EC087EE39C08091A80383FF2AC0FF
:102CD000F5CF8091A80383FD25C08091A90381FDD4
:102CE00023C0ECCF8091A80385FD22C01FC0809136
:102CF000A80385FD1BC08091A90383FF19C00AC0EA
:102D00008091A80386FD16C017C08091A80386FD98
:102D100013C010C089E311C082EE0FC080EE0DC059
:102D200080E00BC086EE09C084EE07C085E305C0D5
:102D300089E203C08AE201C081E390E00895A0E047
:102D4000B0E0E5EAF6E10C94E32A7C015B016A015C
:102D50008091E7038A3018F001E010E002C00AE039
:102D600010E0C1E0D0E0B501C701F601099581117D
:102D700015C021960C171D0794F0CC9F9001CD9F94
:102D8000300D300D112480E090E045E34A95F1F7D5
:102D90000000019682179307C1F7E5CF81E0CDB718
:102DA000DEB7EAE00C94FF2AA0E0B0E0EAEDF6E13D
:102DB0000C94E12AC82F7B01D42F6901FB0180808C
:102DC0009180A280B38060DCDC01CB018819990975
:102DD000AA09BB0984369105A105B10510F4DD23CC
:102DE00031F10C2E000CDD0B01151105A9F0FE01CF
:102DF00083E0EE0FFF1F8A95E1F7EB5EFE4F8181C6
:102E0000928187539C4F408150E00417150708F4C6
:102E1000A801B6010E94A62BCE010E94522A882347
:102E200039F032DCF701608371838283938381E020
:102E3000CDB7DEB7ECE00C94FD2AA9E0B0E0E3E208
:102E4000F7E10C94E92A88E0E1E9F4E0DE0111966B
:102E500001900D928A95E1F7198649E050E066ED00
:102E600073E0CE0101960E94992B41E0892B09F471
:102E700040E009E010E09E012F5F3F4F63EE73E0FA
:102E800084E092DF2996E4E00C94052B0F931F93C6
:102E9000CF93DF93EC0144E050E06EEC73E00E94CE
:102EA000992B41E0892B09F440E004E010E09E01F9
:102EB00065EC73E082E078DFDF91CF911F910F9195
:102EC00008958F929F92AF92BF92EF92FF921F93BD
:102ED000CF93DF9300D000D01F92CDB7DEB77B0138
:102EE00080E090E00E94522A882309F45AC0409161
:102EF000180150E04115510511F041E050E060919A
:102F0000190170911A0167537C4FCE0105960E94FA
:102F1000A62B8090C1039090C203A090C303B090F1
:102F2000C403B2DBDC01CB0188199909AA09BB09EA
:102F300084369105A105B10538F48AEC93E00E942E
:102F40009B219D81891779F181E090E00E94522AAE
:102F5000182F882391F04091200150E04530510511
:102F600010F044E050E0609121017091220167531C
:102F70007C4FCE0101960E94A62B8AEC93E00E9422
:102F80009B2191E02D81281390E0192339F17CDBFE
:102F90006093C1037093C2038093C3039093C403EF
:102FA0000FC010E001C011E08091CA039091CB03E3
:102FB000A091CC03B091CD0389839A83AB83BC836A
:102FC000112361F089819A81AB81BC818093BD031B
:102FD0009093BE03A093BF03B093C0038091BD0341
:102FE0009091BE03A091BF03B091C003F70180830D
:102FF0009183A283B383812F0F900F900F900F9036
:103000000F90DF91CF911F91FF90EF90BF90AF9005
:103010009F908F900895F894E82FE295EF70F0E07C
:1030200031A1282F2F7081E090E001C0880F2A95F0
:10303000EAF7982F9095932391A392A1892B82A3CD
:10304000789408950F931F938091A003882311F023
:103050001BDB0DC019DB00917202109173022091ED
:10306000740230917502600F711F821F931F1F91B0
:103070000F910895CF92DF92EF92FF92CF93DF935B
:1030800000D000D0CDB7DEB7C090DF03D090E00312
:10309000E090E103F090E203F7DADC01CB018C1958
:1030A0009D09AE09BF0984369105A105B10560F1FE
:1030B000C9DFDC01CB010296A11DB11D89839A8372
:1030C000AB83BC8380912E0190912F0187539C4F3D
:1030D00040912D0150E04530510510F044E050E0A2
:1030E000BE016F5F7F4F0E94A62B83E090E00E949D
:1030F000522A882351F0C8DA6093DF037093E0030B
:103100008093E1039093E20381E00F900F900F9082
:103110000F90DF91CF91FF90EF90DF90CF900895C7
:103120007830B0F46630A0F48430A0F490E3899F46
:10313000F001112486E0789FE00DF11D1124E60FC7
:10314000F11DEE0FFF1FEF5CFD4F859194910895E7
:1031500080E001C081E090E008951F93CF93DF935A
:1031600052DDEC01C11580E5D807E8F5C11590E402
:10317000D90708F0A6C0C03ED10530F5CD3CD10539
:1031800008F094C0C83AD10578F4C53AD10508F0E2
:1031900083C0C130D10509F47CC008F4ECC0C43050
:1031A000D10508F0EBC0E7C0C33CD10508F0E3C08F
:1031B000C85AD0E0CC0FDD1FCD59DE4F0990D88121
:1031C000C02DCE019464DBC0C11580E2D80708F0A1
:1031D000C7C0C11591E0D90708F06BC0C83ED10542
:1031E00008F4CCC0C8C0C03682E5D80728F5C03482
:1031F00092E5D90708F076C0C03282E5D80708F01A
:1032000069C0C11592E5D90708F47EC04C2F4695D8
:10321000469580E2489FA0011124C37021E030E070
:10322000C90102C0880F991FCA95E2F7EA01C82BAD
:10323000D92BCE019D68A3C0C03A82E5D807B8F467
:103240008C2F8F71C03892E5D90708F078C0869529
:10325000869590E2899F90011124C37081E090E0EF
:1032600002C0880F991FCA95E2F79A6865C0C03CF2
:1032700082E5D80708F46AC0C03E92E5D90708F095
:103280007AC0CF71DD27DC2FCC27CE01806F906A0A
:1032900076C081E090E073C0C55AD0E0C05ADE4FDE
:1032A0008881C82FD0E0CE01906469C0CE019065BE
:1032B00066C08D2F57DC182FCE019927A4DC1F7113
:1032C00058C0CE0199279FDCCC27DF70D06A8C2BA9
:1032D0009D2B55C0CF71D0E0DC2FCC27CE01816F64
:1032E000906A4DC08C2F8F718695869590E2899F4C
:1032F00090011124C37081E090E002C0880F991FF3
:10330000CA95E2F79C6818C08C2F8F712BDC95E072
:10331000D695C7959A95E1F7CF70D0E0DC2FCC27F2
:10332000282F30E084FF06C084E0220F331F8A95E7
:10333000E1F73327D069CE01822B932B20C090E098
:10334000D82FCC27CE01846F906A19C08C2F8F7133
:1033500009DC8F7190E0D82FCC27CE0190620FC08E
:103360008D2F8F71FFDB182FCE0199274CDC1F7139
:103370009062912B04C080E090E001C0CE01DF910B
:10338000CF911F91089580959091B00389238093E8
:10339000B0030895ACE0B0E0E0EDF9E10C94DE2A72
:1033A000AE014F5F5F4F7A0188E0DA011D928A9586
:1033B000E9F70AE411E06A018EE4682E81E0782ED4
:1033C000AA24A394B12C24E5822E21E0922EF801A8
:1033D00080818F3F09F43FC0F894E82FE295EF70A9
:1033E000F0E021A18F70A50102C0440F551F8A95FE
:1033F000E2F7CA01922F982B91A392A1809589237D
:1034000082A3789400C0EEE4F1E0512C31E02191E8
:103410002F3F89F0A22FA295AF70B0E090968C91CB
:1034200090E02F7002C0959587952A95E2F780FD70
:1034300002C0832F01C080E0582A330F8E169F06EA
:1034400031F7D8018C918F3F09F0E5DDB0EABA95EC
:10345000F1F7F60150820F5F1F4FFFEFCF1ADF0A1F
:103460006016710609F0B3CF48E050E0B70186E777
:1034700092E00E94992B892B91F088E0F701A6E752
:10348000B2E001900D928A95E1F781E08093B50357
:1034900007D99093B4038093B303F12C28C0809193
:1034A000B5038823D1F300917F02E090B303F0903D
:1034B000B403F6D88E199F09059778F310E00E57DC
:1034C0001D4F44E050E066E772E0C8010E94992B6E
:1034D000892B09F4E6C084E0E6E7F2E0D801019028
:1034E0000D928A95E1F7FF24F3941092B503809131
:1034F000A003E0917F02882309F47EC019861A8612
:103500001B861C860E2F10E00E571D4F8091E7037F
:103510008A3058F441E657E1BE01675F7F4FC8012A
:103520000EDC882309F43BC00BC0C090B603D090DA
:10353000B703B6D88C199D09843F914058F73FC016
:1035400046E457E1BE01675F7F4FC801F8DB88237F
:1035500031F14AE358E1BE01675F7F4FC801EFDBFD
:103560008823E9F04DE157E1BE01675F7F4FC80155
:10357000E6DB8823A1F01092E70380917E0290E0C1
:1035800044E050E0BE01675F7F4F8E579D4F0E9421
:10359000992B21E02093BC03892BF9F47CC0809106
:1035A000E7038F3F19F08F5F8093E7038091E70374
:1035B0008A3018F375D89093B7038093B60380913F
:1035C000BC03882309F467C0FE01399684E0DF015B
:1035D0001D928A95E9F71092BC03E0917E02F0E01B
:1035E000EE57FD4F89859A85AB85BC858083918395
:1035F000A283B38381E050C000917E0210E00E5799
:103600001D4FF0E0EE57FD4F84E0AAECB3E00190CF
:103610000D928A95E1F78AEC93E08DD68093C903E9
:1036200084E0EEECF3E0D80101900D928A95E1F789
:103630008090D2039090D303A090D403B090D50390
:103640008091B8039091B903A091BA03B091BB03E4
:1036500088169906AA06BB06A9F08092B803909234
:10366000B903A092BA03B092BB030ED8861A970A88
:10367000A80AB90A8092720290927302A092740210
:10368000B092750288E0E6EDF3E0A1E9B4E00190C4
:103690000D928A95E1F780E08F292C96EFE00C944B
:1036A000FA2AF12C22CFA6E0B0E0E9E5FBE10C9488
:1036B000E92A0E9450138C018091B1039091B203CA
:1036C0000817190781F019821A820E945013682F77
:1036D00049815A81792F80E090E00E94C80A1093B6
:1036E000B2030093B1032696E4E00C94052B90916D
:1036F000B00380915404892B909153049923E1F0F5
:10370000892B90913F01913041F49091A80397FF4C
:1037100004C09EE127ED32E003C096E02FEC32E0DA
:10372000F90120E0915028F031913323D9F32F5F34
:10373000F9CF2111109253040895209151049091D2
:10374000180457E02917A9F030E0529FF001539F69
:10375000F00D1124E75EFB4F7181761306C0708176
:10376000781303C07581741306C02F5F3F4F277015
:10377000E9CF80E0089581E00895FC01DB018481B8
:10378000813031F514968C911497813009F591812F
:1037900086E0E081F0E0899FE00DF11D1124EF54F7
:1037A000FC4F94919A32A1F011962C911197EC91C3
:1037B000F0E0829FE00DF11D1124EF54FC4FE491E5
:1037C00081E0EA3219F09E1301C080E08170089513
:1037D00081E008958091100490E020E0422F022EB5
:1037E000000C550B4817590714F42F5FF7CF0895B5
:1037F000CF93DF93EC0180911004883020F00E9479
:10380000FD261092100480911004E82FF0E0EE0FD6
:10381000FF1FE050FC4FD183C0838F5F8093100463
:10382000DF91CF910895AF92BF92CF92DF92FF9236
:103830000F931F93CF93DF93082FF92E17E0C091BA
:10384000510480911804C817D1F1D0E01C9F600189
:103850001D9FD00C1124C601875E9B4F5C01FC01AB
:103860008581882381F0C5010E94DA26882359F0DA
:10387000F601E15EFB4F80818F7080618083F501EE
:1038800080819181B5DFC5010E94000680915104BD
:1038900090E0019687709927809351041C9FF00156
:1038A0001D9FF00D1124E75EFB4F81818F11C7CF63
:1038B00080818013C4CF8581882309F4C0CFDF9134
:1038C000CF911F910F91FF90DF90CF90BF90AF905D
:1038D000089580913F01813061F58091A80387FFB1
:1038E00028C005DF8093D60240E250E065E574E031
:1038F00085ED92E00E94992B892B09F43EC080E26D
:10390000E5EDF2E0A5E5B4E001900D928A95E1F7CE
:10391000E091A403F091A503309779F10480F5813B
:10392000E02D309751F186E08093D50285ED92E04D
:1039300023C0DDDE8093CD0248E050E065E774E00F
:103940008DEC92E00E94992B892BB9F088E0EDEC88
:10395000F2E0A5E7B4E001900D928A95E1F7E091DD
:10396000A403F091A503309741F00280F381E02D8C
:10397000309719F08DEC92E00995089580915104EB
:1039800090911804891719F08F5F8770FBCF089505
:10399000A0E0B0E0EEECFCE10C94E62A8091170484
:1039A00082958F7009F051C080911604882309F424
:1039B0004CC0C091510487E0D82E80911804C817DC
:1039C00009F443C0D0E0DC9E8001DD9E100D11247F
:1039D000F801E75EFB4F84818823A1F191818091FA
:1039E000120498132FC090818091110498132AC05B
:1039F0008581811127C0E280F3808091130490912A
:103A00001404E81AF90A60E081E194E00E94D50507
:103A100061E174E00E94550BE816F90698F4809174
:103A200017048F70806180931704F801E15EFB4FEB
:103A300080818F708061808381E194E00E94000624
:103A40009DDF03C02196C770B8CFCDB7DEB7E7E0E2
:103A50000C94022BA0E0B0E0E0E3FDE10C94E42A3A
:103A60007C0100919B0210919C02809180029091B8
:103A70008102082B192BCFE0D0E0CC24C394D12CA9
:103A8000C6010C2E02C0880F991F0A94E2F780230A
:103A90009123892B21F4219798F7B12C07C0BC2ED4
:103AA000B7018C2F3DDB59DB0197A9F38B2DCDB7E7
:103AB000DEB7E9E00C94002BCF93DF93EC01CADF73
:103AC000BE012EDB4ADBDF91CF910895A4E1B0E087
:103AD000ECE6FDE10C94DC2A8C0186E0F801DE01C5
:103AE0001F9601900D928A95E1F7D8015C9011968E
:103AF0006C9011971296ED90FC90139714964C9041
:103B0000149715967C9071103EC05F86688A50911C
:103B10001004252F30E0E0E08E2F0E2E000C990BC4
:103B20008217930784F5880F991F80509C4FDC0102
:103B300011964C911197641203C08C91581611F094
:103B4000EF5FEACFEF3FF9F0D80116968C91169708
:103B50008F70806116968C93E517A0F4AFEFA50FD8
:103B6000A0931004EA1770F4F0E0EE0FFF1FE0508E
:103B7000FC4FB0E0AA0FBB1FA050BC4F8D919C9191
:103B80009183808327DE31E1A32E34E0B32E809130
:103B90001504811120C0442009F453C0772009F492
:103BA0004DC0C8010E94DA26782E882309F446C049
:103BB00087E0F801A1E1B4E001900D928A95E1F768
:103BC00080911504813029F48091110490911204A0
:103BD00073DFDEDE4AC260E081E194E00E94D50539
:103BE0006C013090160480911304909114043320DA
:103BF00009F439C14701881A990A60E081E194E02B
:103C00000E94D50561E174E00E94550B8816990663
:103C100008F0DEC04420A9F080911704382F307FCF
:103C200020911204F8019181332371F0291709F4CE
:103C300094C0C8010E94DA268111A4C0C8010E9464
:103C400000067724739411C2291315C02091110422
:103C50009081291310C071100EC08F708061809305
:103C6000170481E194E00E94000680911704D801B6
:103C700016968C93FAC1B0E2DB1AC114E0E3DE06BB
:103C800090F5711033C040E0662D852D56DD8823F8
:103C900009F451C160E0C8010E94D505B80181E175
:103CA00094E06BDD782E811146C1809117048F70EE
:103CB000806180931704809111049091120498DD23
:103CC00081E194E00E94000687E0E1E1F4E0DF0199
:103CD0001D928A95E9F75F86688A8F859889A3DDAA
:103CE00079DD4CDEC2C1772009F425C1809117042B
:103CF000816080931704C114F0E3DF0608F019C156
:103D000060E0C8010E94D505B80181E194E035DD8D
:103D100081110FC1809117048E7F80931704C80111
:103D20000E94DA26782E811104C1809117048F70C9
:103D3000806180931704809111049091120458DDE2
:103D400049DD81E194E00E94000687E0E1E1F4E0D2
:103D5000DF011D928A95E9F788C120911104F801CD
:103D60009081291366CF711064CF8683C8010E94A9
:103D7000000687E0F801A1E1B4E001900D928A9578
:103D8000E1F74EC0772009F459CF20911704822F14
:103D900082958F7090E002978CF080911104909141
:103DA000120499878887FB86EA86809115048C87A0
:103DB0001D862E87CE0108960E94000687E0F80136
:103DC000A1E1B4E001900D928A95E1F7E1DD39CFF0
:103DD00080911704982F907F51F481E194E00E9424
:103DE000000687E0D5011D928A95E9F7A2C044201C
:103DF00009F427CF20911204F8019181291312C0F0
:103E000020911104908129130DC071100BC086837D
:103E1000C8010E94000687E0D5011D928A95E9F746
:103E2000732C23C1C801C6D7882309F407CF772094
:103E300009F404CF20911704822F82958F7090E0AF
:103E400002970CF4BBCF80911104909112049A83D5
:103E50008983FC82EB82809115048D831E822F83DF
:103E6000CE010196A9CF6701C81AD90A60E081E1A5
:103E700094E00E94D50561E174E00E94550BC816DC
:103E8000D90608F051C0442009F4DBCE772009F4AC
:103E9000D5CE90911204F8018181981338C0909189
:103EA00011048081981333C08091130490911404FD
:103EB000E81AF90AF6EEEF16F10400F580911704FE
:103EC00080FD1CC082958F70482F50E04115510530
:103ED000A9F020911704D80116962C9316974F300D
:103EE000510549F08F5F982F9295907F822F8F70A8
:103EF000892B16968C93C8010E94000687E0F80172
:103F0000A1E1B4E001900D928A95E1F7AEC0C8013D
:103F100051D7811153CF809117048160809317048A
:103F2000C8010E940006A1C087E0F50111928A95A0
:103F3000E9F7712C9AC040E0662D852DFEDB782EC6
:103F4000882309F468C081E194E00E94000660E0E3
:103F500081E194E00E94D5058C018090510488E0B5
:103F6000982E91E1A92E94E0B92E27E0722E80912F
:103F700018048816B1F0C82CD12C7C9CC0017D9C03
:103F8000900D1124FC01E75EFB4F7F0160E0CF0143
:103F90000E94D505382E492ED70115968C91811196
:103FA00004C0B7E0B91510F515C010520115E0E3D3
:103FB0001E07B8F7B701C501E0DB811101C0892CEC
:103FC000C6010196982CF82FF7708F2E032D142D13
:103FD0005701CDCF5F86688A8F85988924DCFADB0C
:103FE000CDDCE1E1F4E087E0DF01FDCE17E0809178
:103FF0005104891579F3189FC0011124875E9B4FE6
:104000000E9400068091510490E0019687709927E4
:1040100080935104ECCF5F86688A8F8598894CDD48
:10402000292F22952F70243020F49F70223028F001
:1040300009C02A50223080F014C0992349F0811120
:1040400007C013C0992321F0F8019681907F69F091
:10405000805E883030F409C0803F38F0815F833063
:1040600020F0C8010E940006DBCE872D6496E1E1B6
:104070000C94F82A983078F5863068F5E82FF0E04F
:1040800086E0989FE00DF11D11249E2F977083E02C
:10409000F695E7958A95E1F7EE0FFF1FEE0FFF1FEC
:1040A000E851FC4F40E050E080E0219130E0092EE3
:1040B00002C0369527950A94E2F721703327042E23
:1040C00001C0220F0A94EAF7822B4F5F5F4F443002
:1040D000510559F7089580E00895983088F58630A5
:1040E00078F5E82FF0E086E0989FE00DF11D1124AF
:1040F0008E2F877051E001C0550F8A95EAF783E053
:10410000F695E7958A95E1F7EE0FFF1FEE0FFF1F7B
:10411000E851FC4F20E030E070E04081CB01022EFE
:1041200002C0969587950A94E2F78170819584275D
:104130008523842781932F5F3F4F2430310569F712
:10414000089521E030E002C0220F331F8A95E2F784
:104150002095309580919B0290919C02822393231D
:104160001FC6909152048095892380935204282F72
:10417000277061F4981751F09091A90392FF06C03F
:10418000869586958695DDDF10925204089590916C
:10419000A90392FB222720F9281771F080FB92F9DE
:1041A0009093A9036091A8037091A90384E090E023
:1041B0000E94612B82E0D5CF089521E030E002C05B
:1041C000220F331F8A95E2F780919B0290919C0207
:1041D000822B932BE5C5CF93DF93682F8A3011F4A0
:1041E00081E003C08D3021F480E00E94EE146FC0A6
:1041F0008091A3069091A40626E0FC01ADE9B6E00B
:1042000001900D922A95E1F7603E30F026E0FC0126
:1042100011922A95E9F70AC0F6E06F9FB0011124C8
:104220006D5F7A4F46E050E00E94122BC091A306CA
:10423000D091A40646E050E0BE018DE996E00E94D0
:10424000992B892B49F19E012D593440A90185E014
:10425000569547958A95E1F781E090E0BC0102C050
:10426000660F771F4A95E2F740919B0450919C049A
:10427000462B572B2B5F3F4F65E0369527956A9568
:10428000E1F702C0880F991F2A95E2F7842B952B3E
:1042900090939C0480939B049E0127593440409145
:1042A0009A04642F70E0C9010E94C72A481B463057
:1042B00010F4240F311D211582E0380710F020E0A2
:1042C00030E023563B4F3093A4062093A306DF91A2
:1042D000CF910895CF93DF93EC01FE018491882361
:1042E00019F079DF2196F9CFDF91CF910895F2DFB0
:1042F00081E00C94EE14809199048160809399047C
:10430000089590919104937051F08093920460937A
:104310009304493708F048E740939404ECCF08959C
:1043200080919104837031F08460809391041092A5
:104330004101E1CF0895FC01AC014C5F5F4F8FEF6D
:1043400091E32191822728E030E087FF03C0880FA6
:10435000892701C0880F21503109B9F7E417F50703
:1043600081F70895AAE2B0E0E8EBF1E20C94EA2AC2
:10437000E9E8F4E081E994E02091F10021938E17BF
:104380009F07D1F780918A04833009F461C030F42B
:10439000813071F0823009F49FC0B6C08A3009F4D0
:1043A0008BC08B3009F46CC0893009F0ADC020C0DF
:1043B00080918904813A09F0A7C08091E800877F45
:1043C0008093E80080918D0490918E04892B21F4D4
:1043D00068E08DE794E003C060E080E090E070E08A
:1043E0000E94AF128091E8008B778093E8008CC028
:1043F00080918904813209F087C080918D04909169
:104400008E04029708F080C08091E800877F809337
:10441000E8008091E80082FD05C080918704811149
:10442000F8CF72C02091F3008091F20090E0922BBF
:10443000029731F48091F100813011F0863021F43F
:104440008091F10080933E018091E8008B7758C005
:1044500080918904813A09F057C080918D04909130
:104460008E04892B09F050C08091E800877F8093EB
:10447000E8008091E80080FFFCCF80913F013BC0C5
:1044800080918904813209F03FC080918D04909120
:104490008E04892BC9F58091E800877F8093E8001E
:1044A0000E941E1181E090918B04911101C080E067
:1044B00080933F01A2D428C080918904813221F5E4
:1044C0008091E800877F8093E8000E941E11809110
:1044D0008C0480933D0118C080918904813AA1F435
:1044E0008091E800877F8093E8008091E80080FF5A
:1044F000FCCF80913D018093F1008091E8008E77A0
:104500008093E8000E941E118091E80083FFD6C1CD
:104510008091890490918A04492F50E04A305105D6
:1045200008F0CCC1FA01EB55FF4F0C94932B803867
:1045300021F0823809F0C2C108C0809185049091B1
:104540008604992389F082600FC080918D048F705A
:10455000873008F0B3C18093E9008091EB0085FBC0
:10456000882780F91092E9009091E800977F909356
:10457000E8008093F1001092F10066C1282F2D7F92
:1045800009F09CC1882319F0823061F097C18091B5
:104590008B04813009F092C1933009F080E0809360
:1045A00086042EC080918B0481112AC080918D04D5
:1045B0008F702FEF280F263008F080C18093E9001C
:1045C0002091EB0020FF1CC0933021F48091EB0080
:1045D000806214C09091EB0090619093EB0021E019
:1045E00030E0A90102C0440F551F8A95E2F74093BD
:1045F000EA001092EA008091EB0088608093EB0063
:104600001092E9008091E800877F21C1811156C195
:1046100010918B041F778091E3008078812B809329
:10462000E3008091E800877F8093E8000E941E11DC
:104630008091E80080FFFCCF8091E3008068809348
:10464000E300111102C082E001C083E0809387047F
:1046500035C18058823008F031C180918B0490912F
:104660008C048C3D53E0950779F583E08A838AE2D8
:1046700089834FB7F894DE01139620E03EE051E2C3
:10468000E32FF0E050935700E49120FF03C0E29540
:10469000EF703F5FEF708E2F90E0EA3010F0C7961A
:1046A00001C0C0968D939D932F5F243149F74FBF72
:1046B0008091E800877F8093E8006AE270E0CE0195
:1046C00001960E94AF12AEC040918D0450918E04AD
:1046D000292F332723303105A9F068F42130310523
:1046E00009F4FBC02230310509F0E8C08BE390E00B
:1046F000E2E9F4E044C02132310521F122323105F2
:1047000071F1DCC0992781309105A1F058F0029732
:1047100009F0D4C0EFEDF4E0E4918E2F90E0EFEDDE
:10472000F4E02AC0EFEFF4E0E4918E2F90E0EFEF99
:10473000F4E022C0EDEEF4E0E4918E2F90E0EDEE97
:10474000F4E01AC04115510509F4CCC041305105BF
:1047500009F0B4C089E090E0EDEBF4E010C0411541
:10476000510509F4C4C04130510509F0A7C08DE6D8
:1047700090E0E1EEF3E003C0009709F49FC02091C0
:10478000E800277F2093E80020918F043091900467
:104790008217930708F49C0140E02115310589F147
:1047A00080918704882309F43DC08530D9F1809138
:1047B000E80083FD37C08091E80082FD2FC0809122
:1047C000E80080FFEACF4091F3008091F20090E092
:1047D000942B2115310559F08830910540F444910E
:1047E0004093F1003196215031090196F2CF41E01A
:1047F000089709F040E08091E8008E778093E80008
:10480000CCCF4111CDCF0AC080918704882351F0CD
:10481000853041F08091E80083FD04C08091E8007C
:1048200082FFF2CF8091E8008B778093E80046C04A
:10483000803809F043C08091E800877F8093E800CA
:10484000809188048093F1008091E8008E778093B6
:10485000E8000E941E1132C0811130C080918B048B
:1048600090918C04992702974CF58091E800877FFE
:104870008093E80010918B04109388040E941E110D
:10488000111106C08091E30087FD02C081E001C0E4
:1048900084E08093870442E061EC81E00E943D1156
:1048A00042E261EC82E00E943D11809187048430F5
:1048B00011F081E001C082E0809340018091E80026
:1048C00083FF1AC08091E800877F8093E800809181
:1048D000EB0080628093EB000FC082E190E0EDEC92
:1048E000F4E04DCF89E090E0E4EAF4E048CF84E4DE
:1048F00090E0EEE4F4E043CFAA96E3E087C69BE0C5
:10490000899F802D1124980F973308F096E320910A
:10491000A103222321F09C3128F09BE108958B31E3
:1049200008F48BE10895FF920F931F93CF93DF93C9
:10493000182F062FF42EC0E0D0E0CE012091A10365
:10494000211103C0CB3108F04B972F2D402F612F41
:104950000E942E102196C633D10579F7CDB7DEB768
:10496000E5E052C6E1E9F4E0438120E1421B08F4AE
:1049700040E08181628190E0C4CCE1E9F4E04381D0
:1049800020E1420F08F44FEF8181628190E0B9CCC1
:10499000E1E9F4E0628120E1621B08F460E08181DA
:1049A000438190E0AECCE1E9F4E0628120E1620F66
:1049B00008F46FEF8181438190E0A3CCE1E9F4E05A
:1049C000818190E04381628108979BCCE1E9F4E02A
:1049D000818190E043816281089693CC809191041B
:1049E00086958695815009F481E09ACC81E098CC37
:1049F000E1E9F4E0908181E0892780831092410110
:104A00007ACC8F929F92AF92BF92DF92EF92FF92F9
:104A10000F931F93CF93DF930E9422186093A506F4
:104A20007093A6068093A7069093A806C091AD0642
:104A3000209141012130F1F038F0223009F43DC0DD
:104A4000233009F447C086C1109244016093A9063F
:104A50007093AA068093AB069093AC069091910454
:104A6000892F837019F0892F869586958093AD06DE
:104A700081E02DC080914301C8130DC020919104A5
:104A8000237030E04091420150E081E02417350767
:104A900019F480E001C081E081708093460180912B
:104AA000960490914501981709F440C08093450100
:104AB00040E060E080E037DF39C0C093430180917F
:104AC00091048370809342010E94961083E080934A
:104AD000410140C180919904882349F048E050E0A9
:104AE00067E170E081E994E0C3D510929904809069
:104AF000A9069090AA06A090AB06B090AC06809153
:104B0000A003882319F00E94441302C00E942218B7
:104B1000DC01CB0188199909AA09BB094097A105B5
:104B2000B10508F417C11092410114C1C13009F058
:104B3000B3C080914401E3DED92ED82F4091920476
:104B400020919304E0919404F0E0211106C0ED5B04
:104B5000F54F1491F12E012F80C0E22EF12CED5B68
:104B6000F54F3491F32FA32EB12C56E0459FC00191
:104B700011240FEF10E0B8010AD55BEA5603C0011B
:104B8000579F900D1124840F911D840F911D982E15
:104B9000990C980EA8014E195F094A9DC0014B9DC2
:104BA000900D5A9D900D1124E92F299DA0011124EB
:104BB000452F5527D801A41BB50BAD014A9DD00147
:104BC0004B9DB00D5A9DB00D1124A80149195109F2
:104BD0004A018E9CA0018F9C500D9E9C500D11246B
:104BE000452F5527041B150B0A9D70010B9DF00CDA
:104BF0001A9DF00C11244F2D6230710591F048F48C
:104C000061157105D9F061307105B1F4432F3B2F67
:104C100015C06430710561F040F06630710571F0C7
:104C20000BC0392FEF2D4F2F09C04B2F392F02C04A
:104C30003F2D492FEF2F02C0492FEB2F1E2FF42EAF
:104C4000032F0BC08D2F90E0FC01E95CFD4F3081FC
:104C500020914501232321F4DF5FDD1598F30EC079
:104C60002091A103211104C08B3191050CF04B97C9
:104C7000212F4F2D602F0E942E10EECF8091A10387
:104C8000882329F081E05AE15D1588F40FC081E0A6
:104C900095E39D1560F40AC0C13048F58091460146
:104CA000882321F040E060E080E03DDE80E09091EC
:104CB00044019F5F9093440181110BC082E0809377
:104CC000410180914601811104C0CC2309F4FECE3C
:104CD00009C0C11107C03EC064E180E024DE82E06B
:104CE0008093410180914401815009DE33C0CF3F60
:104CF00059F58091A9069091AA06A091AB06B091B2
:104D0000AC0688279C70AA27BB272AE0B695A795F2
:104D1000979587952A95D1F782309105A105B10520
:104D200061F083309105A105B10551F040E0019794
:104D3000A105B10589F260E005C044E160E0CDCF96
:104D400044E164E184E1CACF809144018F5F8093A4
:104D50004401B4CFDF91CF911F910F91FF90EF905D
:104D6000DF90BF90AF909F908F900895E1E9F4E0BD
:104D700085E080838091470190914801A09149018D
:104D800081839283A3838FE784838FEF858348E0B9
:104D900050E067E170E0CF016BD410929904089560
:104DA00090939C0280939B0208959093810280933C
:104DB00080020895FC0124812223D9F08081918111
:104DC0000E945C1D92959F70963079F010F492507D
:104DD00001C09A50923068F4803F69F018F4883E20
:104DE00040F409C0843F29F406C0883E20F0813F8A
:104DF00011F080E0089581E008951092B003809151
:104E00003F01813041F48091A80387FF04C08EE107
:104E1000E7EDF2E003C086E0EFECF2E0DF011D9287
:104E20008A95E9F780E090E00E941A1480E090E013
:104E30000E94F313109254040C94691C882321F0EF
:104E40000E94C3190C94691C0895882339F090912D
:104E5000B003892B8093B0030C94691C08958823B8
:104E600029F19CEF980F913A18F40E948E130DC00F
:104E700090E2980F983058F4877091E001C0990F34
:104E80008A95EAF7892F0E94C3190C94691C9BE547
:104E9000980F933020F480E090E00C941A14885A14
:104EA0008B3120F480E090E00C94F3130895CF93BD
:104EB000882309F465C0C82F8CEF8C0F813AA0F5C8
:104EC00080913F018130E1F48091A80387FF18C0F1
:104ED000EC2FE695E695E695F0E0EB52FD4F8281EA
:104EE000282F30E04C2F477081E090E002C0880FFF
:104EF000991F4A95E2F782239323892B61F410C00E
:104F0000EFECF2E085ED92E02191C21721F08E17CF
:104F10009F07D1F705C08C2F0E948E130E94691C39
:104F20008C2F0E94BC1310C080E28C0F883078F464
:104F3000C77081E090E001C0880FCA95EAF79091B0
:104F4000B003892B8093B0030E94691C19C0EBE564
:104F5000EC0FE33040F4F0E0E05AFE4F808190E047
:104F60000E941A140DC0C85ACB3150F4EC2FF0E057
:104F7000EE0FFF1FED59FE4F808191810E94F313C8
:104F8000CF910895EF92FF920F931F93CF93DF93EA
:104F9000182FEB011092BC0084EA8093BC000E94A1
:104FA00050137C018091BC0087FD0DC0CF3F8FEF77
:104FB000D807C1F3C7010E948513C817D90790F716
:104FC0008EEF9FEF2DC08091B900887F883041F02F
:104FD0008091B900887F803119F08FEF9FEF20C05A
:104FE0001093BB0084E88093BC000E9450138C0196
:104FF0008091BC0087FD0BC0CF3F8FEFD807C1F376
:10500000C8010E948513C817D90790F7D9CF80919E
:10501000B900887F883111F08034F9F680E090E0A3
:10502000CDB7DEB7E6E0EFC21092B9008CE0809316
:10503000B80008950F931F93CF93DF93EB018093F4
:10504000BB0084E88093BC000E9450138C018091C7
:10505000BC0087FD0DC0CF3F8FEFD807C1F3C8015B
:105060000E948513C817D90790F78EEF9FEF0CC0E9
:105070002091B900287F81E090E0283211F480E08F
:1050800090E0919581959109DF91CF911F910F91BA
:105090000895A0E0B0E0EEE4F8E292C2782EB62ED9
:1050A000A72E6A0189010E9450134C010431110599
:1050B00050F00F3F8FEF180749F0C80164E170E02E
:1050C00066D2EB0105C0C1E0D0E002C0C5E0D0E08F
:1050D000BE01872D57DF7C0197FD05C0CB2DDA2D52
:1050E000CC0EDD1E11C00F3F8FEF180789F3C401EE
:1050F0000E9485130817190758F7F0CFF7FC07C06F
:10510000B801899197DF7C01CC15DD05B9F784E9F9
:105110008093BC00C701CDB7DEB7EDE06DC2A0E063
:10512000B0E0E4E9F8E24CC2782EEB016A018901B3
:105130000E9450134C010431110550F00F3F8FEFC6
:10514000180751F0C80164E170E021D25B0107C08B
:10515000AA24A394B12C03C085E0A82EB12CB501DC
:10516000872D10DF7C0197FD03C0CC0EDD1E13C020
:105170000F3FEFEF1E0799F3C4010E948513081734
:10518000190768F7F2CFF7FC09C0FE018491B80156
:1051900051DF7C012196CC15DD05A9F784E98093C8
:1051A000BC00C701CDB7DEB7EDE026C2A0E0B0E09D
:1051B000EBEDF8E204C2682E762E5A0169010E94D6
:1051C00050134C010431110550F00F3F8FEF1807B9
:1051D00049F0C80164E170E0DAD1EB0105C0C1E03B
:1051E000D0E002C0C5E0D0E0BE01862DCBDE7C0160
:1051F00097FF0BC00F3F8FEF1807B1F3C4010E9458
:1052000085130817190780F711C0B801872D12DF21
:105210007C01E501CA0CDB1CCC15DD0539F0F7FC7F
:1052200005C0B801899106DF7C01F6CF84E980933F
:10523000BC00C701CDB7DEB7EEE0DDC18EE14A9B11
:1052400002C08150E1F74A9BFECF08955A9880E250
:105250008A95F1F75A9A0895FC012AE02A95F1F708
:1052600028E090E080E031E040E14A95F1F7880FD6
:105270004A9B02C08160932700C0000040E14A952C
:10528000F1F7215089F720E12A95F1F729B100C003
:10529000000030E13A95F1F722FB222720F992270E
:1052A0002081920F90830895A1E0B0E0E9E5F9E252
:1052B0008EC119828C017C01E60EF11C0E151F05B2
:1052C00041F0BCDFCE010196C7DFF80181938F0169
:1052D000F5CF81E09981911180E02196E6E093C1BC
:1052E000529A5A9A089552985A9AEA9AE9E6F0E040
:1052F00080818F7C80830895615091E001C0990F77
:105300006A95EAF720E031E0992361F0492F4823BC
:1053100019F05A9A232701C05A9840E24A95F1F7AA
:105320009695F2CF222311F05A9A01C05A9880E242
:105330008A95F1F75A980895FF920F931F93CF9390
:10534000DF93EC018C01060F111DC017D10731F05E
:10535000F9907CDF68E08F2DCFDFF7CFCDB7DEB7D8
:10536000E5E052C11F920F920FB60F9211240F93D6
:105370001F932F933F934F935F936F937F938F93DD
:105380009F93AF93BF93EF93FF93CF93DF931F92BE
:10539000CDB7DEB7198252DFCE0101965DDF082F4F
:1053A000069506950695902F96959570202F257059
:1053B000920F292F237096959695920F87708913D7
:1053C0005BC08981811158C0063008F055C080E16A
:1053D0008A95F1F75A9A529A82E08A95F1F700C0BD
:1053E0005A9888E0089F80011124D801AB5EBE4F17
:1053F0001696ED91FC9117973097A9F0609199015D
:1054000070919A0114962D913C911597260F371F94
:1054100011968D919C911297680F791F13964C915C
:1054200013978C910995F801EB5EFE4F638166231B
:1054300049F08091990190919A0124813581820FE0
:10544000931F7ADF03DF80E18A95F1F75A9852982B
:105450005A9A80E18A95F1F7F801EB5EFE4F608180
:10546000662349F08091990190919A0121813281BE
:10547000820F931F19DFE2DE0F90DF91CF91FF9132
:10548000EF91BF91AF919F918F917F916F915F91BC
:105490004F913F912F911F910F910F900FBE0F9041
:1054A0001F9018950F931F93CF93DF93863091052C
:1054B0000CF067C0EC01F894529A5A9885E08A95EE
:1054C000F1F700009C2F969595702C2F2570920F68
:1054D000892F83709695969523E0CC0FDD1F2A9532
:1054E000E1F7980F8E01092BB1DE84E08A95F1F780
:1054F00000C068E0802F00DF80E18A95F1F75298C4
:105500005A9A4A9902C000C0FCCF87E090E04A9BBB
:1055100008C0019721F4529A5A9A789432C000C078
:10552000F6CFFE01EB5EFE4F6381662379F080913A
:10553000990190919A0124813581820F931FB4DEE5
:10554000811104C0529A5A9A78941CC077DE80E286
:105550008A95F1F75A98529A80E18A95F1F7CB5ED5
:10556000DE4F6881662349F08091990190919A01FC
:1055700029813A81820F931FDFDE68DE789481E013
:1055800001C080E0DF91CF911F910F910895AA1B78
:10559000BB1B51E107C0AA1FBB1FA617B70710F01E
:1055A000A61BB70B881F991F5A95A9F78095909550
:1055B000BC01CD0108952F923F924F925F926F925E
:1055C0007F928F929F92AF92BF92CF92DF92EF9293
:1055D000FF920F931F93CF93DF93CDB7DEB7CA1B14
:1055E000DB0B0FB6F894DEBF0FBECDBF09942A883F
:1055F000398848885F846E847D848C849B84AA84E7
:10560000B984C884DF80EE80FD800C811B81AA8173
:10561000B981CE0FD11D0FB6F894DEBF0FBECDBF3E
:10562000ED010895FB01DC0102C005900D9241508F
:105630005040D8F70895DC01CB01FC01F999FECF69
:1056400006C0F2BDE1BDF89A319600B40D9241500A
:105650005040B8F70895F999FECF92BD81BDF89AF0
:10566000992780B50895A8E1B0E042E050E0E5CF89
:10567000DC01A40FB51F4150504040F0CB01840F16
:10568000951F2E9105D041505040D8F70895262FF0
:10569000F999FECF92BD81BDF89A019700B4021628
:1056A00039F01FBA20BD0FB6F894FA9AF99A0FBED6
:1056B00008950396272FECDFEADF252FE9DF242F5B
:1056C000E7CF0196272FE4DFE2CF991B79E004C0F2
:1056D000991F961708F0961B881F7A95C9F7809531
:1056E0000895A1E21A2EAA1BBB1BFD010DC0AA1F23
:1056F000BB1FEE1FFF1FA217B307E407F50720F03B
:10570000A21BB30BE40BF50B661F771F881F991FB5
:105710001A9469F760957095809590959B01AC01FE
:10572000BD01CF010895EE0FFF1F0590F491E02D0C
:105730000994FB01DC0104C08D910190801921F4D2
:1057400041505040C8F7881B990B0895FB01DC01BC
:1057500002C001900D9241505040D8F70895F8943E
:02576000FFCF79
:10576200012B1083107E102A107910FF00200021D7
:10577200007F220003000000010000000000000082
:1057820004010000000405000000000000040900FC
:105792000000000000090D000000000000000001F0
:1057A2000003FFFF00FF0000FF78946697C6F4F540
:1057B200F6F731330008101818100800FF05020030
:1057C200818283E200E900EA00B500B600B700CDAD
:1057D200008301CC008A0192019401210223022458
:1057E200022502260227022A02B300B4006F0070CB
:1057F200009F01CB019F02A002C903181712110AD0
:1058020009191613100B081A15140F0C07FFFFFFC6
:105812000E0D0633322D2C252434312E2B26233522
:10582200302F2A2722FFFFFF2928215510320D1081
:10583200141026323055345F3F5527551555044410
:105842000244134425503A3C373223320D320021B0
:105852000321142125102A10181007000700180030
:10586200298B10AE0DD014D026AE308B34813F8BF5
:10587200278B158B049C029C139C25903AA437AE6F
:1058820023AE0DAE00BF03BF14BF25D02AD018D05F
:1058920007E007E018E02902020202020201040402
:1058A20004040404010104040404040404040401BF
:1058B20001010202020202020104040404040401BE
:0E58C2000104040404040404040401010100B0
:00000001FF
